{
  "_format": "hh-sol-artifact-1",
  "contractName": "Course",
  "sourceName": "contracts/Course.sol",
  "abi": [
    {
      "inputs": [
        {
          "internalType": "address",
          "name": "deployer",
          "type": "address"
        },
        {
          "internalType": "uint256",
          "name": "coursePrice",
          "type": "uint256"
        },
        {
          "internalType": "string",
          "name": "url",
          "type": "string"
        }
      ],
      "stateMutability": "nonpayable",
      "type": "constructor"
    },
    {
      "anonymous": false,
      "inputs": [
        {
          "indexed": true,
          "internalType": "address",
          "name": "account",
          "type": "address"
        },
        {
          "indexed": true,
          "internalType": "address",
          "name": "operator",
          "type": "address"
        },
        {
          "indexed": false,
          "internalType": "bool",
          "name": "approved",
          "type": "bool"
        }
      ],
      "name": "ApprovalForAll",
      "type": "event"
    },
    {
      "anonymous": false,
      "inputs": [
        {
          "indexed": true,
          "internalType": "address",
          "name": "operator",
          "type": "address"
        },
        {
          "indexed": true,
          "internalType": "address",
          "name": "from",
          "type": "address"
        },
        {
          "indexed": true,
          "internalType": "address",
          "name": "to",
          "type": "address"
        },
        {
          "indexed": false,
          "internalType": "uint256[]",
          "name": "ids",
          "type": "uint256[]"
        },
        {
          "indexed": false,
          "internalType": "uint256[]",
          "name": "values",
          "type": "uint256[]"
        }
      ],
      "name": "TransferBatch",
      "type": "event"
    },
    {
      "anonymous": false,
      "inputs": [
        {
          "indexed": true,
          "internalType": "address",
          "name": "operator",
          "type": "address"
        },
        {
          "indexed": true,
          "internalType": "address",
          "name": "from",
          "type": "address"
        },
        {
          "indexed": true,
          "internalType": "address",
          "name": "to",
          "type": "address"
        },
        {
          "indexed": false,
          "internalType": "uint256",
          "name": "id",
          "type": "uint256"
        },
        {
          "indexed": false,
          "internalType": "uint256",
          "name": "value",
          "type": "uint256"
        }
      ],
      "name": "TransferSingle",
      "type": "event"
    },
    {
      "anonymous": false,
      "inputs": [
        {
          "indexed": false,
          "internalType": "string",
          "name": "value",
          "type": "string"
        },
        {
          "indexed": true,
          "internalType": "uint256",
          "name": "id",
          "type": "uint256"
        }
      ],
      "name": "URI",
      "type": "event"
    },
    {
      "inputs": [],
      "name": "ACCESS_TOKEN",
      "outputs": [
        {
          "internalType": "uint256",
          "name": "",
          "type": "uint256"
        }
      ],
      "stateMutability": "view",
      "type": "function"
    },
    {
      "inputs": [],
      "name": "OWNERSHIP_TOKEN",
      "outputs": [
        {
          "internalType": "uint256",
          "name": "",
          "type": "uint256"
        }
      ],
      "stateMutability": "view",
      "type": "function"
    },
    {
      "inputs": [],
      "name": "_coursesMinted",
      "outputs": [
        {
          "internalType": "uint256",
          "name": "_value",
          "type": "uint256"
        }
      ],
      "stateMutability": "view",
      "type": "function"
    },
    {
      "inputs": [],
      "name": "amount",
      "outputs": [
        {
          "internalType": "uint256",
          "name": "",
          "type": "uint256"
        }
      ],
      "stateMutability": "view",
      "type": "function"
    },
    {
      "inputs": [
        {
          "internalType": "address",
          "name": "account",
          "type": "address"
        },
        {
          "internalType": "uint256",
          "name": "id",
          "type": "uint256"
        }
      ],
      "name": "balanceOf",
      "outputs": [
        {
          "internalType": "uint256",
          "name": "",
          "type": "uint256"
        }
      ],
      "stateMutability": "view",
      "type": "function"
    },
    {
      "inputs": [
        {
          "internalType": "address[]",
          "name": "accounts",
          "type": "address[]"
        },
        {
          "internalType": "uint256[]",
          "name": "ids",
          "type": "uint256[]"
        }
      ],
      "name": "balanceOfBatch",
      "outputs": [
        {
          "internalType": "uint256[]",
          "name": "",
          "type": "uint256[]"
        }
      ],
      "stateMutability": "view",
      "type": "function"
    },
    {
      "inputs": [
        {
          "internalType": "uint256",
          "name": "newPrice",
          "type": "uint256"
        }
      ],
      "name": "changeAmount",
      "outputs": [],
      "stateMutability": "nonpayable",
      "type": "function"
    },
    {
      "inputs": [],
      "name": "contractURI",
      "outputs": [
        {
          "internalType": "string",
          "name": "",
          "type": "string"
        }
      ],
      "stateMutability": "view",
      "type": "function"
    },
    {
      "inputs": [],
      "name": "getAmount",
      "outputs": [
        {
          "internalType": "uint256",
          "name": "",
          "type": "uint256"
        }
      ],
      "stateMutability": "view",
      "type": "function"
    },
    {
      "inputs": [],
      "name": "getMoney",
      "outputs": [
        {
          "internalType": "uint256",
          "name": "",
          "type": "uint256"
        }
      ],
      "stateMutability": "view",
      "type": "function"
    },
    {
      "inputs": [],
      "name": "getNumberOfTokenMinted",
      "outputs": [
        {
          "internalType": "uint256",
          "name": "",
          "type": "uint256"
        }
      ],
      "stateMutability": "view",
      "type": "function"
    },
    {
      "inputs": [],
      "name": "getOwner",
      "outputs": [
        {
          "internalType": "address",
          "name": "",
          "type": "address"
        }
      ],
      "stateMutability": "view",
      "type": "function"
    },
    {
      "inputs": [
        {
          "internalType": "address",
          "name": "account",
          "type": "address"
        },
        {
          "internalType": "address",
          "name": "operator",
          "type": "address"
        }
      ],
      "name": "isApprovedForAll",
      "outputs": [
        {
          "internalType": "bool",
          "name": "",
          "type": "bool"
        }
      ],
      "stateMutability": "view",
      "type": "function"
    },
    {
      "inputs": [],
      "name": "meta_url",
      "outputs": [
        {
          "internalType": "string",
          "name": "",
          "type": "string"
        }
      ],
      "stateMutability": "view",
      "type": "function"
    },
    {
      "inputs": [
        {
          "internalType": "address",
          "name": "from",
          "type": "address"
        },
        {
          "internalType": "address",
          "name": "to",
          "type": "address"
        },
        {
          "internalType": "uint256[]",
          "name": "ids",
          "type": "uint256[]"
        },
        {
          "internalType": "uint256[]",
          "name": "amounts",
          "type": "uint256[]"
        },
        {
          "internalType": "bytes",
          "name": "data",
          "type": "bytes"
        }
      ],
      "name": "safeBatchTransferFrom",
      "outputs": [],
      "stateMutability": "nonpayable",
      "type": "function"
    },
    {
      "inputs": [
        {
          "internalType": "address",
          "name": "from",
          "type": "address"
        },
        {
          "internalType": "address",
          "name": "to",
          "type": "address"
        },
        {
          "internalType": "uint256",
          "name": "id",
          "type": "uint256"
        },
        {
          "internalType": "uint256",
          "name": "amountToTransfer",
          "type": "uint256"
        },
        {
          "internalType": "bytes",
          "name": "data",
          "type": "bytes"
        }
      ],
      "name": "safeTransferFrom",
      "outputs": [],
      "stateMutability": "nonpayable",
      "type": "function"
    },
    {
      "inputs": [
        {
          "internalType": "address",
          "name": "operator",
          "type": "address"
        },
        {
          "internalType": "bool",
          "name": "approved",
          "type": "bool"
        }
      ],
      "name": "setApprovalForAll",
      "outputs": [],
      "stateMutability": "nonpayable",
      "type": "function"
    },
    {
      "inputs": [
        {
          "internalType": "string",
          "name": "newuri",
          "type": "string"
        }
      ],
      "name": "setURI",
      "outputs": [],
      "stateMutability": "nonpayable",
      "type": "function"
    },
    {
      "inputs": [
        {
          "internalType": "bytes4",
          "name": "interfaceId",
          "type": "bytes4"
        }
      ],
      "name": "supportsInterface",
      "outputs": [
        {
          "internalType": "bool",
          "name": "",
          "type": "bool"
        }
      ],
      "stateMutability": "view",
      "type": "function"
    },
    {
      "inputs": [],
      "name": "takeClass",
      "outputs": [],
      "stateMutability": "payable",
      "type": "function"
    },
    {
      "inputs": [
        {
          "internalType": "uint256",
          "name": "",
          "type": "uint256"
        }
      ],
      "name": "uri",
      "outputs": [
        {
          "internalType": "string",
          "name": "",
          "type": "string"
        }
      ],
      "stateMutability": "view",
      "type": "function"
    },
    {
      "inputs": [
        {
          "internalType": "uint256",
          "name": "amountToWithdraw",
          "type": "uint256"
        }
      ],
      "name": "withDrawMoney",
      "outputs": [],
      "stateMutability": "nonpayable",
      "type": "function"
    },
    {
      "stateMutability": "payable",
      "type": "receive"
    }
  ],
  "bytecode": "0x60806040523480156200001157600080fd5b5060405162003c7a38038062003c7a833981810160405281019062000037919062000739565b806200004981620000fb60201b60201c565b5082600360006101000a81548173ffffffffffffffffffffffffffffffffffffffff021916908373ffffffffffffffffffffffffffffffffffffffff160217905550816005819055508060049080519060200190620000aa929190620005d2565b50620000f2600360009054906101000a900473ffffffffffffffffffffffffffffffffffffffff1660006001604051806020016040528060008152506200011760201b60201c565b50505062000eb5565b806002908051906020019062000113929190620005d2565b5050565b600073ffffffffffffffffffffffffffffffffffffffff168473ffffffffffffffffffffffffffffffffffffffff1614156200018a576040517f08c379a00000000000000000000000000000000000000000000000000000000081526004016200018190620009b9565b60405180910390fd5b60006200019c620002dc60201b60201c565b9050620001d581600087620001b788620002e460201b60201c565b620001c888620002e460201b60201c565b87620003ad60201b60201c565b8260008086815260200190815260200160002060008773ffffffffffffffffffffffffffffffffffffffff1673ffffffffffffffffffffffffffffffffffffffff168152602001908152602001600020600082825462000236919062000a9f565b925050819055508473ffffffffffffffffffffffffffffffffffffffff16600073ffffffffffffffffffffffffffffffffffffffff168273ffffffffffffffffffffffffffffffffffffffff167fc3d58168c5ae7397731d063d5bbf3d657854427343f4c083240f7aacaa2d0f628787604051620002b6929190620009db565b60405180910390a4620002d581600087878787620003b560201b60201c565b5050505050565b600033905090565b60606000600167ffffffffffffffff8111156200032a577f4e487b7100000000000000000000000000000000000000000000000000000000600052604160045260246000fd5b604051908082528060200260200182016040528015620003595781602001602082028036833780820191505090505b509050828160008151811062000398577f4e487b7100000000000000000000000000000000000000000000000000000000600052603260045260246000fd5b60200260200101818152505080915050919050565b505050505050565b620003e18473ffffffffffffffffffffffffffffffffffffffff16620005bf60201b62000f761760201c565b15620005b7578373ffffffffffffffffffffffffffffffffffffffff1663f23a6e6187878686866040518663ffffffff1660e01b81526004016200042a959493929190620008ed565b602060405180830381600087803b1580156200044557600080fd5b505af19250505080156200047957506040513d601f19601f82011682018060405250810190620004769190620007a8565b60015b6200052b576200048862000c95565b806308c379a01415620004ec5750620004a062000dc5565b80620004ad5750620004ee565b806040517f08c379a0000000000000000000000000000000000000000000000000000000008152600401620004e3919062000951565b60405180910390fd5b505b6040517f08c379a0000000000000000000000000000000000000000000000000000000008152600401620005229062000975565b60405180910390fd5b63f23a6e6160e01b7bffffffffffffffffffffffffffffffffffffffffffffffffffffffff1916817bffffffffffffffffffffffffffffffffffffffffffffffffffffffff191614620005b5576040517f08c379a0000000000000000000000000000000000000000000000000000000008152600401620005ac9062000997565b60405180910390fd5b505b505050505050565b600080823b905060008111915050919050565b828054620005e09062000b9c565b90600052602060002090601f01602090048101928262000604576000855562000650565b82601f106200061f57805160ff191683800117855562000650565b8280016001018555821562000650579182015b828111156200064f57825182559160200191906001019062000632565b5b5090506200065f919062000663565b5090565b5b808211156200067e57600081600090555060010162000664565b5090565b600062000699620006938462000a31565b62000a08565b905082815260208101848484011115620006b257600080fd5b620006bf84828562000b66565b509392505050565b600081519050620006d88162000e67565b92915050565b600081519050620006ef8162000e81565b92915050565b600082601f8301126200070757600080fd5b81516200071984826020860162000682565b91505092915050565b600081519050620007338162000e9b565b92915050565b6000806000606084860312156200074f57600080fd5b60006200075f86828701620006c7565b9350506020620007728682870162000722565b925050604084015167ffffffffffffffff8111156200079057600080fd5b6200079e86828701620006f5565b9150509250925092565b600060208284031215620007bb57600080fd5b6000620007cb84828501620006de565b91505092915050565b620007df8162000afc565b82525050565b6000620007f28262000a67565b620007fe818562000a7d565b93506200081081856020860162000b66565b6200081b8162000cba565b840191505092915050565b6000620008338262000a72565b6200083f818562000a8e565b93506200085181856020860162000b66565b6200085c8162000cba565b840191505092915050565b60006200087660348362000a8e565b9150620008838262000cd8565b604082019050919050565b60006200089d60288362000a8e565b9150620008aa8262000d27565b604082019050919050565b6000620008c460218362000a8e565b9150620008d18262000d76565b604082019050919050565b620008e78162000b5c565b82525050565b600060a082019050620009046000830188620007d4565b620009136020830187620007d4565b620009226040830186620008dc565b620009316060830185620008dc565b8181036080830152620009458184620007e5565b90509695505050505050565b600060208201905081810360008301526200096d818462000826565b905092915050565b60006020820190508181036000830152620009908162000867565b9050919050565b60006020820190508181036000830152620009b2816200088e565b9050919050565b60006020820190508181036000830152620009d481620008b5565b9050919050565b6000604082019050620009f26000830185620008dc565b62000a016020830184620008dc565b9392505050565b600062000a1462000a27565b905062000a22828262000bd2565b919050565b6000604051905090565b600067ffffffffffffffff82111562000a4f5762000a4e62000c66565b5b62000a5a8262000cba565b9050602081019050919050565b600081519050919050565b600081519050919050565b600082825260208201905092915050565b600082825260208201905092915050565b600062000aac8262000b5c565b915062000ab98362000b5c565b9250827fffffffffffffffffffffffffffffffffffffffffffffffffffffffffffffffff0382111562000af15762000af062000c08565b5b828201905092915050565b600062000b098262000b3c565b9050919050565b60007fffffffff0000000000000000000000000000000000000000000000000000000082169050919050565b600073ffffffffffffffffffffffffffffffffffffffff82169050919050565b6000819050919050565b60005b8381101562000b8657808201518184015260208101905062000b69565b8381111562000b96576000848401525b50505050565b6000600282049050600182168062000bb557607f821691505b6020821081141562000bcc5762000bcb62000c37565b5b50919050565b62000bdd8262000cba565b810181811067ffffffffffffffff8211171562000bff5762000bfe62000c66565b5b80604052505050565b7f4e487b7100000000000000000000000000000000000000000000000000000000600052601160045260246000fd5b7f4e487b7100000000000000000000000000000000000000000000000000000000600052602260045260246000fd5b7f4e487b7100000000000000000000000000000000000000000000000000000000600052604160045260246000fd5b600060033d111562000cb75760046000803e62000cb460005162000ccb565b90505b90565b6000601f19601f8301169050919050565b60008160e01c9050919050565b7f455243313135353a207472616e7366657220746f206e6f6e204552433131353560008201527f526563656976657220696d706c656d656e746572000000000000000000000000602082015250565b7f455243313135353a204552433131353552656365697665722072656a6563746560008201527f6420746f6b656e73000000000000000000000000000000000000000000000000602082015250565b7f455243313135353a206d696e7420746f20746865207a65726f2061646472657360008201527f7300000000000000000000000000000000000000000000000000000000000000602082015250565b600060443d101562000dd75762000e64565b62000de162000a27565b60043d036004823e80513d602482011167ffffffffffffffff8211171562000e0b57505062000e64565b808201805167ffffffffffffffff81111562000e2b575050505062000e64565b80602083010160043d03850181111562000e4a57505050505062000e64565b62000e5b8260200185018662000bd2565b82955050505050505b90565b62000e728162000afc565b811462000e7e57600080fd5b50565b62000e8c8162000b10565b811462000e9857600080fd5b50565b62000ea68162000b5c565b811462000eb257600080fd5b50565b612db58062000ec56000396000f3fe6080604052600436106101385760003560e01c8063893d20e8116100ab578063ab3c17611161006f578063ab3c176114610432578063d321fe291461045d578063d5b0197914610488578063e8a3d48514610492578063e985e9c5146104bd578063f242432a146104fa5761013f565b8063893d20e81461035d57806398e1b41014610388578063a22cb465146103b3578063a34b8746146103dc578063aa8c217c146104075761013f565b80633eb5002a116100fd5780633eb5002a1461024d578063477b0f40146102785780634e1273f4146102a35780635afea49e146102e05780635c3205161461030b578063827cc452146103345761013f565b8062fdd58e1461014457806301ffc9a71461018157806302fe5305146101be5780630e89341c146101e75780632eb2c2d6146102245761013f565b3661013f57005b600080fd5b34801561015057600080fd5b5061016b60048036038101906101669190611dd4565b610523565b6040516101789190612497565b60405180910390f35b34801561018d57600080fd5b506101a860048036038101906101a39190611e7c565b6105ec565b6040516101b591906122ba565b60405180910390f35b3480156101ca57600080fd5b506101e560048036038101906101e09190611ece565b6106ce565b005b3480156101f357600080fd5b5061020e60048036038101906102099190611f0f565b61076a565b60405161021b91906122d5565b60405180910390f35b34801561023057600080fd5b5061024b60048036038101906102469190611c4a565b6107fe565b005b34801561025957600080fd5b50610262610805565b60405161026f9190612497565b60405180910390f35b34801561028457600080fd5b5061028d61080a565b60405161029a91906122d5565b60405180910390f35b3480156102af57600080fd5b506102ca60048036038101906102c59190611e10565b610898565b6040516102d79190612298565b60405180910390f35b3480156102ec57600080fd5b506102f5610a49565b6040516103029190612497565b60405180910390f35b34801561031757600080fd5b50610332600480360381019061032d9190611f0f565b610a4e565b005b34801561034057600080fd5b5061035b60048036038101906103569190611f0f565b610ae8565b005b34801561036957600080fd5b50610372610bf5565b60405161037f9190612223565b60405180910390f35b34801561039457600080fd5b5061039d610c1f565b6040516103aa9190612497565b60405180910390f35b3480156103bf57600080fd5b506103da60048036038101906103d59190611d98565b610c27565b005b3480156103e857600080fd5b506103f1610c3d565b6040516103fe9190612497565b60405180910390f35b34801561041357600080fd5b5061041c610c49565b6040516104299190612497565b60405180910390f35b34801561043e57600080fd5b50610447610c4f565b6040516104549190612497565b60405180910390f35b34801561046957600080fd5b50610472610c5c565b60405161047f9190612497565b60405180910390f35b610490610c66565b005b34801561049e57600080fd5b506104a7610cd3565b6040516104b491906122d5565b60405180910390f35b3480156104c957600080fd5b506104e460048036038101906104df9190611c0e565b610d65565b6040516104f191906122ba565b60405180910390f35b34801561050657600080fd5b50610521600480360381019061051c9190611d09565b610df9565b005b60008073ffffffffffffffffffffffffffffffffffffffff168373ffffffffffffffffffffffffffffffffffffffff161415610594576040517f08c379a000000000000000000000000000000000000000000000000000000000815260040161058b90612357565b60405180910390fd5b60008083815260200190815260200160002060008473ffffffffffffffffffffffffffffffffffffffff1673ffffffffffffffffffffffffffffffffffffffff16815260200190815260200160002054905092915050565b60007fd9b67a26000000000000000000000000000000000000000000000000000000007bffffffffffffffffffffffffffffffffffffffffffffffffffffffff1916827bffffffffffffffffffffffffffffffffffffffffffffffffffffffff191614806106b757507f0e89341c000000000000000000000000000000000000000000000000000000007bffffffffffffffffffffffffffffffffffffffffffffffffffffffff1916827bffffffffffffffffffffffffffffffffffffffffffffffffffffffff1916145b806106c757506106c682610f89565b5b9050919050565b600360009054906101000a900473ffffffffffffffffffffffffffffffffffffffff1673ffffffffffffffffffffffffffffffffffffffff163373ffffffffffffffffffffffffffffffffffffffff161461075e576040517f08c379a000000000000000000000000000000000000000000000000000000000815260040161075590612377565b60405180910390fd5b61076781610ff3565b50565b60606002805461077990612737565b80601f01602080910402602001604051908101604052809291908181526020018280546107a590612737565b80156107f25780601f106107c7576101008083540402835291602001916107f2565b820191906000526020600020905b8154815290600101906020018083116107d557829003601f168201915b50505050509050919050565b5050505050565b600181565b6004805461081790612737565b80601f016020809104026020016040519081016040528092919081815260200182805461084390612737565b80156108905780601f1061086557610100808354040283529160200191610890565b820191906000526020600020905b81548152906001019060200180831161087357829003601f168201915b505050505081565b606081518351146108de576040517f08c379a00000000000000000000000000000000000000000000000000000000081526004016108d590612437565b60405180910390fd5b6000835167ffffffffffffffff811115610921577f4e487b7100000000000000000000000000000000000000000000000000000000600052604160045260246000fd5b60405190808252806020026020018201604052801561094f5781602001602082028036833780820191505090505b50905060005b8451811015610a3e576109e885828151811061099a577f4e487b7100000000000000000000000000000000000000000000000000000000600052603260045260246000fd5b60200260200101518583815181106109db577f4e487b7100000000000000000000000000000000000000000000000000000000600052603260045260246000fd5b6020026020010151610523565b828281518110610a21577f4e487b7100000000000000000000000000000000000000000000000000000000600052603260045260246000fd5b60200260200101818152505080610a379061279a565b9050610955565b508091505092915050565b600081565b600360009054906101000a900473ffffffffffffffffffffffffffffffffffffffff1673ffffffffffffffffffffffffffffffffffffffff163373ffffffffffffffffffffffffffffffffffffffff1614610ade576040517f08c379a0000000000000000000000000000000000000000000000000000000008152600401610ad590612377565b60405180910390fd5b8060058190555050565b600360009054906101000a900473ffffffffffffffffffffffffffffffffffffffff1673ffffffffffffffffffffffffffffffffffffffff163373ffffffffffffffffffffffffffffffffffffffff1614610b78576040517f08c379a0000000000000000000000000000000000000000000000000000000008152600401610b6f90612377565b60405180910390fd5b60003373ffffffffffffffffffffffffffffffffffffffff166108fc839081150290604051600060405180830381858888f19350505050905080610bf1576040517f08c379a0000000000000000000000000000000000000000000000000000000008152600401610be8906123b7565b60405180910390fd5b5050565b6000600360009054906101000a900473ffffffffffffffffffffffffffffffffffffffff16905090565b600047905090565b610c39610c3261100d565b8383611015565b5050565b60068060000154905081565b60055481565b6000600660000154905090565b6000600554905090565b600554341015610cab576040517f08c379a0000000000000000000000000000000000000000000000000000000008152600401610ca290612477565b60405180910390fd5b610cb56006611182565b610cd13360018060405180602001604052806000815250611198565b565b606060048054610ce290612737565b80601f0160208091040260200160405190810160405280929190818152602001828054610d0e90612737565b8015610d5b5780601f10610d3057610100808354040283529160200191610d5b565b820191906000526020600020905b815481529060010190602001808311610d3e57829003601f168201915b5050505050905090565b6000600160008473ffffffffffffffffffffffffffffffffffffffff1673ffffffffffffffffffffffffffffffffffffffff16815260200190815260200160002060008373ffffffffffffffffffffffffffffffffffffffff1673ffffffffffffffffffffffffffffffffffffffff16815260200190815260200160002060009054906101000a900460ff16905092915050565b610e0161100d565b73ffffffffffffffffffffffffffffffffffffffff168573ffffffffffffffffffffffffffffffffffffffff161480610e475750610e4685610e4161100d565b610d65565b5b80610e9f5750600360009054906101000a900473ffffffffffffffffffffffffffffffffffffffff1673ffffffffffffffffffffffffffffffffffffffff168573ffffffffffffffffffffffffffffffffffffffff16145b610ede576040517f08c379a0000000000000000000000000000000000000000000000000000000008152600401610ed590612397565b60405180910390fd5b60008314610f21576040517f08c379a0000000000000000000000000000000000000000000000000000000008152600401610f1890612337565b60405180910390fd5b610f2e858585858561132e565b83600360006101000a81548173ffffffffffffffffffffffffffffffffffffffff021916908373ffffffffffffffffffffffffffffffffffffffff1602179055505050505050565b600080823b905060008111915050919050565b60007f01ffc9a7000000000000000000000000000000000000000000000000000000007bffffffffffffffffffffffffffffffffffffffffffffffffffffffff1916827bffffffffffffffffffffffffffffffffffffffffffffffffffffffff1916149050919050565b8060029080519060200190611009929190611906565b5050565b600033905090565b8173ffffffffffffffffffffffffffffffffffffffff168373ffffffffffffffffffffffffffffffffffffffff161415611084576040517f08c379a000000000000000000000000000000000000000000000000000000000815260040161107b90612417565b60405180910390fd5b80600160008573ffffffffffffffffffffffffffffffffffffffff1673ffffffffffffffffffffffffffffffffffffffff16815260200190815260200160002060008473ffffffffffffffffffffffffffffffffffffffff1673ffffffffffffffffffffffffffffffffffffffff16815260200190815260200160002060006101000a81548160ff0219169083151502179055508173ffffffffffffffffffffffffffffffffffffffff168373ffffffffffffffffffffffffffffffffffffffff167f17307eab39ab6107e8899845ad3d59bd9653f200f220920489ca2b5937696c318360405161117591906122ba565b60405180910390a3505050565b6001816000016000828254019250508190555050565b600073ffffffffffffffffffffffffffffffffffffffff168473ffffffffffffffffffffffffffffffffffffffff161415611208576040517f08c379a00000000000000000000000000000000000000000000000000000000081526004016111ff90612457565b60405180910390fd5b600061121261100d565b905061123381600087611224886113cf565b61122d886113cf565b87611495565b8260008086815260200190815260200160002060008773ffffffffffffffffffffffffffffffffffffffff1673ffffffffffffffffffffffffffffffffffffffff1681526020019081526020016000206000828254611292919061262b565b925050819055508473ffffffffffffffffffffffffffffffffffffffff16600073ffffffffffffffffffffffffffffffffffffffff168273ffffffffffffffffffffffffffffffffffffffff167fc3d58168c5ae7397731d063d5bbf3d657854427343f4c083240f7aacaa2d0f6287876040516113109291906124b2565b60405180910390a46113278160008787878761149d565b5050505050565b61133661100d565b73ffffffffffffffffffffffffffffffffffffffff168573ffffffffffffffffffffffffffffffffffffffff16148061137c575061137b8561137661100d565b610d65565b5b6113bb576040517f08c379a00000000000000000000000000000000000000000000000000000000081526004016113b290612397565b60405180910390fd5b6113c88585858585611684565b5050505050565b60606000600167ffffffffffffffff811115611414577f4e487b7100000000000000000000000000000000000000000000000000000000600052604160045260246000fd5b6040519080825280602002602001820160405280156114425781602001602082028036833780820191505090505b5090508281600081518110611480577f4e487b7100000000000000000000000000000000000000000000000000000000600052603260045260246000fd5b60200260200101818152505080915050919050565b505050505050565b6114bc8473ffffffffffffffffffffffffffffffffffffffff16610f76565b1561167c578373ffffffffffffffffffffffffffffffffffffffff1663f23a6e6187878686866040518663ffffffff1660e01b815260040161150295949392919061223e565b602060405180830381600087803b15801561151c57600080fd5b505af192505050801561154d57506040513d601f19601f8201168201806040525081019061154a9190611ea5565b60015b6115f357611559612870565b806308c379a014156115b6575061156e612c8d565b8061157957506115b8565b806040517f08c379a00000000000000000000000000000000000000000000000000000000081526004016115ad91906122d5565b60405180910390fd5b505b6040517f08c379a00000000000000000000000000000000000000000000000000000000081526004016115ea906122f7565b60405180910390fd5b63f23a6e6160e01b7bffffffffffffffffffffffffffffffffffffffffffffffffffffffff1916817bffffffffffffffffffffffffffffffffffffffffffffffffffffffff19161461167a576040517f08c379a000000000000000000000000000000000000000000000000000000000815260040161167190612317565b60405180910390fd5b505b505050505050565b600073ffffffffffffffffffffffffffffffffffffffff168473ffffffffffffffffffffffffffffffffffffffff1614156116f4576040517f08c379a00000000000000000000000000000000000000000000000000000000081526004016116eb906123d7565b60405180910390fd5b60006116fe61100d565b905061171e81878761170f886113cf565b611718886113cf565b87611495565b600080600086815260200190815260200160002060008873ffffffffffffffffffffffffffffffffffffffff1673ffffffffffffffffffffffffffffffffffffffff168152602001908152602001600020549050838110156117b5576040517f08c379a00000000000000000000000000000000000000000000000000000000081526004016117ac906123f7565b60405180910390fd5b83810360008087815260200190815260200160002060008973ffffffffffffffffffffffffffffffffffffffff1673ffffffffffffffffffffffffffffffffffffffff168152602001908152602001600020819055508360008087815260200190815260200160002060008873ffffffffffffffffffffffffffffffffffffffff1673ffffffffffffffffffffffffffffffffffffffff168152602001908152602001600020600082825461186a919061262b565b925050819055508573ffffffffffffffffffffffffffffffffffffffff168773ffffffffffffffffffffffffffffffffffffffff168373ffffffffffffffffffffffffffffffffffffffff167fc3d58168c5ae7397731d063d5bbf3d657854427343f4c083240f7aacaa2d0f6288886040516118e79291906124b2565b60405180910390a46118fd82888888888861149d565b50505050505050565b82805461191290612737565b90600052602060002090601f016020900481019282611934576000855561197b565b82601f1061194d57805160ff191683800117855561197b565b8280016001018555821561197b579182015b8281111561197a57825182559160200191906001019061195f565b5b509050611988919061198c565b5090565b5b808211156119a557600081600090555060010161198d565b5090565b60006119bc6119b784612500565b6124db565b905080838252602082019050828560208602820111156119db57600080fd5b60005b85811015611a0b57816119f18882611afd565b8452602084019350602083019250506001810190506119de565b5050509392505050565b6000611a28611a238461252c565b6124db565b90508083825260208201905082856020860282011115611a4757600080fd5b60005b85811015611a775781611a5d8882611bf9565b845260208401935060208301925050600181019050611a4a565b5050509392505050565b6000611a94611a8f84612558565b6124db565b905082815260208101848484011115611aac57600080fd5b611ab78482856126f5565b509392505050565b6000611ad2611acd84612589565b6124db565b905082815260208101848484011115611aea57600080fd5b611af58482856126f5565b509392505050565b600081359050611b0c81612d23565b92915050565b600082601f830112611b2357600080fd5b8135611b338482602086016119a9565b91505092915050565b600082601f830112611b4d57600080fd5b8135611b5d848260208601611a15565b91505092915050565b600081359050611b7581612d3a565b92915050565b600081359050611b8a81612d51565b92915050565b600081519050611b9f81612d51565b92915050565b600082601f830112611bb657600080fd5b8135611bc6848260208601611a81565b91505092915050565b600082601f830112611be057600080fd5b8135611bf0848260208601611abf565b91505092915050565b600081359050611c0881612d68565b92915050565b60008060408385031215611c2157600080fd5b6000611c2f85828601611afd565b9250506020611c4085828601611afd565b9150509250929050565b600080600080600060a08688031215611c6257600080fd5b6000611c7088828901611afd565b9550506020611c8188828901611afd565b945050604086013567ffffffffffffffff811115611c9e57600080fd5b611caa88828901611b3c565b935050606086013567ffffffffffffffff811115611cc757600080fd5b611cd388828901611b3c565b925050608086013567ffffffffffffffff811115611cf057600080fd5b611cfc88828901611ba5565b9150509295509295909350565b600080600080600060a08688031215611d2157600080fd5b6000611d2f88828901611afd565b9550506020611d4088828901611afd565b9450506040611d5188828901611bf9565b9350506060611d6288828901611bf9565b925050608086013567ffffffffffffffff811115611d7f57600080fd5b611d8b88828901611ba5565b9150509295509295909350565b60008060408385031215611dab57600080fd5b6000611db985828601611afd565b9250506020611dca85828601611b66565b9150509250929050565b60008060408385031215611de757600080fd5b6000611df585828601611afd565b9250506020611e0685828601611bf9565b9150509250929050565b60008060408385031215611e2357600080fd5b600083013567ffffffffffffffff811115611e3d57600080fd5b611e4985828601611b12565b925050602083013567ffffffffffffffff811115611e6657600080fd5b611e7285828601611b3c565b9150509250929050565b600060208284031215611e8e57600080fd5b6000611e9c84828501611b7b565b91505092915050565b600060208284031215611eb757600080fd5b6000611ec584828501611b90565b91505092915050565b600060208284031215611ee057600080fd5b600082013567ffffffffffffffff811115611efa57600080fd5b611f0684828501611bcf565b91505092915050565b600060208284031215611f2157600080fd5b6000611f2f84828501611bf9565b91505092915050565b6000611f448383612205565b60208301905092915050565b611f5981612681565b82525050565b6000611f6a826125ca565b611f7481856125f8565b9350611f7f836125ba565b8060005b83811015611fb0578151611f978882611f38565b9750611fa2836125eb565b925050600181019050611f83565b5085935050505092915050565b611fc681612693565b82525050565b6000611fd7826125d5565b611fe18185612609565b9350611ff1818560208601612704565b611ffa81612892565b840191505092915050565b6000612010826125e0565b61201a818561261a565b935061202a818560208601612704565b61203381612892565b840191505092915050565b600061204b60348361261a565b9150612056826128b0565b604082019050919050565b600061206e60288361261a565b9150612079826128ff565b604082019050919050565b600061209160278361261a565b915061209c8261294e565b604082019050919050565b60006120b4602b8361261a565b91506120bf8261299d565b604082019050919050565b60006120d760228361261a565b91506120e2826129ec565b604082019050919050565b60006120fa60298361261a565b915061210582612a3b565b604082019050919050565b600061211d60148361261a565b915061212882612a8a565b602082019050919050565b600061214060258361261a565b915061214b82612ab3565b604082019050919050565b6000612163602a8361261a565b915061216e82612b02565b604082019050919050565b600061218660298361261a565b915061219182612b51565b604082019050919050565b60006121a960298361261a565b91506121b482612ba0565b604082019050919050565b60006121cc60218361261a565b91506121d782612bef565b604082019050919050565b60006121ef60328361261a565b91506121fa82612c3e565b604082019050919050565b61220e816126eb565b82525050565b61221d816126eb565b82525050565b60006020820190506122386000830184611f50565b92915050565b600060a0820190506122536000830188611f50565b6122606020830187611f50565b61226d6040830186612214565b61227a6060830185612214565b818103608083015261228c8184611fcc565b90509695505050505050565b600060208201905081810360008301526122b28184611f5f565b905092915050565b60006020820190506122cf6000830184611fbd565b92915050565b600060208201905081810360008301526122ef8184612005565b905092915050565b600060208201905081810360008301526123108161203e565b9050919050565b6000602082019050818103600083015261233081612061565b9050919050565b6000602082019050818103600083015261235081612084565b9050919050565b60006020820190508181036000830152612370816120a7565b9050919050565b60006020820190508181036000830152612390816120ca565b9050919050565b600060208201905081810360008301526123b0816120ed565b9050919050565b600060208201905081810360008301526123d081612110565b9050919050565b600060208201905081810360008301526123f081612133565b9050919050565b6000602082019050818103600083015261241081612156565b9050919050565b6000602082019050818103600083015261243081612179565b9050919050565b600060208201905081810360008301526124508161219c565b9050919050565b60006020820190508181036000830152612470816121bf565b9050919050565b60006020820190508181036000830152612490816121e2565b9050919050565b60006020820190506124ac6000830184612214565b92915050565b60006040820190506124c76000830185612214565b6124d46020830184612214565b9392505050565b60006124e56124f6565b90506124f18282612769565b919050565b6000604051905090565b600067ffffffffffffffff82111561251b5761251a612841565b5b602082029050602081019050919050565b600067ffffffffffffffff82111561254757612546612841565b5b602082029050602081019050919050565b600067ffffffffffffffff82111561257357612572612841565b5b61257c82612892565b9050602081019050919050565b600067ffffffffffffffff8211156125a4576125a3612841565b5b6125ad82612892565b9050602081019050919050565b6000819050602082019050919050565b600081519050919050565b600081519050919050565b600081519050919050565b6000602082019050919050565b600082825260208201905092915050565b600082825260208201905092915050565b600082825260208201905092915050565b6000612636826126eb565b9150612641836126eb565b9250827fffffffffffffffffffffffffffffffffffffffffffffffffffffffffffffffff03821115612676576126756127e3565b5b828201905092915050565b600061268c826126cb565b9050919050565b60008115159050919050565b60007fffffffff0000000000000000000000000000000000000000000000000000000082169050919050565b600073ffffffffffffffffffffffffffffffffffffffff82169050919050565b6000819050919050565b82818337600083830152505050565b60005b83811015612722578082015181840152602081019050612707565b83811115612731576000848401525b50505050565b6000600282049050600182168061274f57607f821691505b6020821081141561276357612762612812565b5b50919050565b61277282612892565b810181811067ffffffffffffffff8211171561279157612790612841565b5b80604052505050565b60006127a5826126eb565b91507fffffffffffffffffffffffffffffffffffffffffffffffffffffffffffffffff8214156127d8576127d76127e3565b5b600182019050919050565b7f4e487b7100000000000000000000000000000000000000000000000000000000600052601160045260246000fd5b7f4e487b7100000000000000000000000000000000000000000000000000000000600052602260045260246000fd5b7f4e487b7100000000000000000000000000000000000000000000000000000000600052604160045260246000fd5b600060033d111561288f5760046000803e61288c6000516128a3565b90505b90565b6000601f19601f8301169050919050565b60008160e01c9050919050565b7f455243313135353a207472616e7366657220746f206e6f6e204552433131353560008201527f526563656976657220696d706c656d656e746572000000000000000000000000602082015250565b7f455243313135353a204552433131353552656365697665722072656a6563746560008201527f6420746f6b656e73000000000000000000000000000000000000000000000000602082015250565b7f4f6e6c7920746865206f776e657273686970204e4654206973207472616e736660008201527f657261626c652e00000000000000000000000000000000000000000000000000602082015250565b7f455243313135353a2062616c616e636520717565727920666f7220746865207a60008201527f65726f2061646472657373000000000000000000000000000000000000000000602082015250565b7f596f75206d75737420626520746865206f776e657220746f207769746864726160008201527f772e000000000000000000000000000000000000000000000000000000000000602082015250565b7f455243313135353a2063616c6c6572206973206e6f74206f776e6572206e6f7260008201527f20617070726f7665640000000000000000000000000000000000000000000000602082015250565b7f4661696c656420746f2073656e64204574686572000000000000000000000000600082015250565b7f455243313135353a207472616e7366657220746f20746865207a65726f20616460008201527f6472657373000000000000000000000000000000000000000000000000000000602082015250565b7f455243313135353a20696e73756666696369656e742062616c616e636520666f60008201527f72207472616e7366657200000000000000000000000000000000000000000000602082015250565b7f455243313135353a2073657474696e6720617070726f76616c2073746174757360008201527f20666f722073656c660000000000000000000000000000000000000000000000602082015250565b7f455243313135353a206163636f756e747320616e6420696473206c656e67746860008201527f206d69736d617463680000000000000000000000000000000000000000000000602082015250565b7f455243313135353a206d696e7420746f20746865207a65726f2061646472657360008201527f7300000000000000000000000000000000000000000000000000000000000000602082015250565b7f596f75206d7573742070726f766964652065746820696e206f7264657220746f60008201527f206163636573732074686520636c617373210000000000000000000000000000602082015250565b600060443d1015612c9d57612d20565b612ca56124f6565b60043d036004823e80513d602482011167ffffffffffffffff82111715612ccd575050612d20565b808201805167ffffffffffffffff811115612ceb5750505050612d20565b80602083010160043d038501811115612d08575050505050612d20565b612d1782602001850186612769565b82955050505050505b90565b612d2c81612681565b8114612d3757600080fd5b50565b612d4381612693565b8114612d4e57600080fd5b50565b612d5a8161269f565b8114612d6557600080fd5b50565b612d71816126eb565b8114612d7c57600080fd5b5056fea2646970667358221220c6b49f046a7aa5199f98a14aeaa6a2098fac94307cc6c95dff25e0400161265564736f6c63430008040033",
  "linkReferences": {},
  "deployedLinkReferences": {}
}