{
  "_format": "hh-sol-artifact-1",
  "contractName": "CourseReward",
  "sourceName": "contracts/CourseReward.sol",
  "abi": [
    {
      "inputs": [],
      "stateMutability": "nonpayable",
      "type": "constructor"
    },
    {
      "anonymous": false,
      "inputs": [
        {
          "indexed": true,
          "internalType": "address",
          "name": "owner",
          "type": "address"
        },
        {
          "indexed": true,
          "internalType": "address",
          "name": "approved",
          "type": "address"
        },
        {
          "indexed": true,
          "internalType": "uint256",
          "name": "tokenId",
          "type": "uint256"
        }
      ],
      "name": "Approval",
      "type": "event"
    },
    {
      "anonymous": false,
      "inputs": [
        {
          "indexed": true,
          "internalType": "address",
          "name": "owner",
          "type": "address"
        },
        {
          "indexed": true,
          "internalType": "address",
          "name": "operator",
          "type": "address"
        },
        {
          "indexed": false,
          "internalType": "bool",
          "name": "approved",
          "type": "bool"
        }
      ],
      "name": "ApprovalForAll",
      "type": "event"
    },
    {
      "anonymous": false,
      "inputs": [
        {
          "indexed": true,
          "internalType": "address",
          "name": "previousOwner",
          "type": "address"
        },
        {
          "indexed": true,
          "internalType": "address",
          "name": "newOwner",
          "type": "address"
        }
      ],
      "name": "OwnershipTransferred",
      "type": "event"
    },
    {
      "anonymous": false,
      "inputs": [
        {
          "indexed": true,
          "internalType": "address",
          "name": "from",
          "type": "address"
        },
        {
          "indexed": true,
          "internalType": "address",
          "name": "to",
          "type": "address"
        },
        {
          "indexed": true,
          "internalType": "uint256",
          "name": "tokenId",
          "type": "uint256"
        }
      ],
      "name": "Transfer",
      "type": "event"
    },
    {
      "inputs": [
        {
          "internalType": "address",
          "name": "to",
          "type": "address"
        },
        {
          "internalType": "uint256",
          "name": "tokenId",
          "type": "uint256"
        }
      ],
      "name": "approve",
      "outputs": [],
      "stateMutability": "nonpayable",
      "type": "function"
    },
    {
      "inputs": [
        {
          "internalType": "address",
          "name": "owner",
          "type": "address"
        }
      ],
      "name": "balanceOf",
      "outputs": [
        {
          "internalType": "uint256",
          "name": "",
          "type": "uint256"
        }
      ],
      "stateMutability": "view",
      "type": "function"
    },
    {
      "inputs": [
        {
          "internalType": "uint256",
          "name": "tokenId",
          "type": "uint256"
        }
      ],
      "name": "getApproved",
      "outputs": [
        {
          "internalType": "address",
          "name": "",
          "type": "address"
        }
      ],
      "stateMutability": "view",
      "type": "function"
    },
    {
      "inputs": [
        {
          "internalType": "address",
          "name": "owner",
          "type": "address"
        },
        {
          "internalType": "address",
          "name": "operator",
          "type": "address"
        }
      ],
      "name": "isApprovedForAll",
      "outputs": [
        {
          "internalType": "bool",
          "name": "",
          "type": "bool"
        }
      ],
      "stateMutability": "view",
      "type": "function"
    },
    {
      "inputs": [],
      "name": "name",
      "outputs": [
        {
          "internalType": "string",
          "name": "",
          "type": "string"
        }
      ],
      "stateMutability": "view",
      "type": "function"
    },
    {
      "inputs": [],
      "name": "owner",
      "outputs": [
        {
          "internalType": "address",
          "name": "",
          "type": "address"
        }
      ],
      "stateMutability": "view",
      "type": "function"
    },
    {
      "inputs": [
        {
          "internalType": "uint256",
          "name": "tokenId",
          "type": "uint256"
        }
      ],
      "name": "ownerOf",
      "outputs": [
        {
          "internalType": "address",
          "name": "",
          "type": "address"
        }
      ],
      "stateMutability": "view",
      "type": "function"
    },
    {
      "inputs": [],
      "name": "renounceOwnership",
      "outputs": [],
      "stateMutability": "nonpayable",
      "type": "function"
    },
    {
      "inputs": [
        {
          "internalType": "address",
          "name": "to",
          "type": "address"
        },
        {
          "internalType": "string",
          "name": "uri",
          "type": "string"
        }
      ],
      "name": "safeMint",
      "outputs": [
        {
          "internalType": "uint256",
          "name": "",
          "type": "uint256"
        }
      ],
      "stateMutability": "nonpayable",
      "type": "function"
    },
    {
      "inputs": [
        {
          "internalType": "address",
          "name": "from",
          "type": "address"
        },
        {
          "internalType": "address",
          "name": "to",
          "type": "address"
        },
        {
          "internalType": "uint256",
          "name": "tokenId",
          "type": "uint256"
        }
      ],
      "name": "safeTransferFrom",
      "outputs": [],
      "stateMutability": "nonpayable",
      "type": "function"
    },
    {
      "inputs": [
        {
          "internalType": "address",
          "name": "from",
          "type": "address"
        },
        {
          "internalType": "address",
          "name": "to",
          "type": "address"
        },
        {
          "internalType": "uint256",
          "name": "tokenId",
          "type": "uint256"
        },
        {
          "internalType": "bytes",
          "name": "_data",
          "type": "bytes"
        }
      ],
      "name": "safeTransferFrom",
      "outputs": [],
      "stateMutability": "nonpayable",
      "type": "function"
    },
    {
      "inputs": [
        {
          "internalType": "address",
          "name": "operator",
          "type": "address"
        },
        {
          "internalType": "bool",
          "name": "approved",
          "type": "bool"
        }
      ],
      "name": "setApprovalForAll",
      "outputs": [],
      "stateMutability": "nonpayable",
      "type": "function"
    },
    {
      "inputs": [
        {
          "internalType": "bytes4",
          "name": "interfaceId",
          "type": "bytes4"
        }
      ],
      "name": "supportsInterface",
      "outputs": [
        {
          "internalType": "bool",
          "name": "",
          "type": "bool"
        }
      ],
      "stateMutability": "view",
      "type": "function"
    },
    {
      "inputs": [],
      "name": "symbol",
      "outputs": [
        {
          "internalType": "string",
          "name": "",
          "type": "string"
        }
      ],
      "stateMutability": "view",
      "type": "function"
    },
    {
      "inputs": [
        {
          "internalType": "uint256",
          "name": "tokenId",
          "type": "uint256"
        }
      ],
      "name": "tokenURI",
      "outputs": [
        {
          "internalType": "string",
          "name": "",
          "type": "string"
        }
      ],
      "stateMutability": "view",
      "type": "function"
    },
    {
      "inputs": [
        {
          "internalType": "address",
          "name": "from",
          "type": "address"
        },
        {
          "internalType": "address",
          "name": "to",
          "type": "address"
        },
        {
          "internalType": "uint256",
          "name": "tokenId",
          "type": "uint256"
        }
      ],
      "name": "transferFrom",
      "outputs": [],
      "stateMutability": "nonpayable",
      "type": "function"
    },
    {
      "inputs": [
        {
          "internalType": "address",
          "name": "newOwner",
          "type": "address"
        }
      ],
      "name": "transferOwnership",
      "outputs": [],
      "stateMutability": "nonpayable",
      "type": "function"
    }
  ],
  "bytecode": "0x60806040523480156200001157600080fd5b506040518060400160405280601281526020017f4d494348492052657761726473207465737400000000000000000000000000008152506040518060400160405280600381526020017f4d43480000000000000000000000000000000000000000000000000000000000815250816000908051906020019062000096929190620001a6565b508060019080519060200190620000af929190620001a6565b505050620000d2620000c6620000d860201b60201c565b620000e060201b60201c565b620002bb565b600033905090565b6000600760009054906101000a900473ffffffffffffffffffffffffffffffffffffffff16905081600760006101000a81548173ffffffffffffffffffffffffffffffffffffffff021916908373ffffffffffffffffffffffffffffffffffffffff1602179055508173ffffffffffffffffffffffffffffffffffffffff168173ffffffffffffffffffffffffffffffffffffffff167f8be0079c531659141344cd1fd0a4f28419497f9722a3daafe3b4186f6b6457e060405160405180910390a35050565b828054620001b49062000256565b90600052602060002090601f016020900481019282620001d8576000855562000224565b82601f10620001f357805160ff191683800117855562000224565b8280016001018555821562000224579182015b828111156200022357825182559160200191906001019062000206565b5b50905062000233919062000237565b5090565b5b808211156200025257600081600090555060010162000238565b5090565b600060028204905060018216806200026f57607f821691505b602082108114156200028657620002856200028c565b5b50919050565b7f4e487b7100000000000000000000000000000000000000000000000000000000600052602260045260246000fd5b612a7f80620002cb6000396000f3fe608060405234801561001057600080fd5b506004361061010b5760003560e01c8063715018a6116100a2578063b88d4fde11610071578063b88d4fde146102a4578063c87b56dd146102c0578063d204c45e146102f0578063e985e9c514610320578063f2fde38b146103505761010b565b8063715018a6146102425780638da5cb5b1461024c57806395d89b411461026a578063a22cb465146102885761010b565b806323b872dd116100de57806323b872dd146101aa57806342842e0e146101c65780636352211e146101e257806370a08231146102125761010b565b806301ffc9a71461011057806306fdde0314610140578063081812fc1461015e578063095ea7b31461018e575b600080fd5b61012a60048036038101906101259190611c0a565b61036c565b6040516101379190611fed565b60405180910390f35b61014861044e565b6040516101559190612008565b60405180910390f35b61017860048036038101906101739190611c5c565b6104e0565b6040516101859190611f86565b60405180910390f35b6101a860048036038101906101a39190611bce565b610565565b005b6101c460048036038101906101bf9190611a74565b61067d565b005b6101e060048036038101906101db9190611a74565b6106f0565b005b6101fc60048036038101906101f79190611c5c565b610710565b6040516102099190611f86565b60405180910390f35b61022c60048036038101906102279190611a0f565b6107c2565b604051610239919061220a565b60405180910390f35b61024a61087a565b005b610254610902565b6040516102619190611f86565b60405180910390f35b61027261092c565b60405161027f9190612008565b60405180910390f35b6102a2600480360381019061029d9190611b3e565b6109be565b005b6102be60048036038101906102b99190611ac3565b6109d4565b005b6102da60048036038101906102d59190611c5c565b610a48565b6040516102e79190612008565b60405180910390f35b61030a60048036038101906103059190611b7a565b610a5a565b604051610317919061220a565b60405180910390f35b61033a60048036038101906103359190611a38565b610a92565b6040516103479190611fed565b60405180910390f35b61036a60048036038101906103659190611a0f565b610b26565b005b60007f80ac58cd000000000000000000000000000000000000000000000000000000007bffffffffffffffffffffffffffffffffffffffffffffffffffffffff1916827bffffffffffffffffffffffffffffffffffffffffffffffffffffffff1916148061043757507f5b5e139f000000000000000000000000000000000000000000000000000000007bffffffffffffffffffffffffffffffffffffffffffffffffffffffff1916827bffffffffffffffffffffffffffffffffffffffffffffffffffffffff1916145b80610447575061044682610c1e565b5b9050919050565b60606000805461045d90612460565b80601f016020809104026020016040519081016040528092919081815260200182805461048990612460565b80156104d65780601f106104ab576101008083540402835291602001916104d6565b820191906000526020600020905b8154815290600101906020018083116104b957829003601f168201915b5050505050905090565b60006104eb82610c88565b61052a576040517f08c379a00000000000000000000000000000000000000000000000000000000081526004016105219061218a565b60405180910390fd5b6004600083815260200190815260200160002060009054906101000a900473ffffffffffffffffffffffffffffffffffffffff169050919050565b600061057082610710565b90508073ffffffffffffffffffffffffffffffffffffffff168373ffffffffffffffffffffffffffffffffffffffff1614156105e1576040517f08c379a00000000000000000000000000000000000000000000000000000000081526004016105d8906121ea565b60405180910390fd5b8073ffffffffffffffffffffffffffffffffffffffff16610600610cf4565b73ffffffffffffffffffffffffffffffffffffffff16148061062f575061062e81610629610cf4565b610a92565b5b61066e576040517f08c379a0000000000000000000000000000000000000000000000000000000008152600401610665906120aa565b60405180910390fd5b6106788383610cfc565b505050565b8273ffffffffffffffffffffffffffffffffffffffff168273ffffffffffffffffffffffffffffffffffffffff16146106eb576040517f08c379a00000000000000000000000000000000000000000000000000000000081526004016106e29061212a565b60405180910390fd5b505050565b61070b838383604051806020016040528060008152506109d4565b505050565b6000806002600084815260200190815260200160002060009054906101000a900473ffffffffffffffffffffffffffffffffffffffff169050600073ffffffffffffffffffffffffffffffffffffffff168173ffffffffffffffffffffffffffffffffffffffff1614156107b9576040517f08c379a00000000000000000000000000000000000000000000000000000000081526004016107b0906120ea565b60405180910390fd5b80915050919050565b60008073ffffffffffffffffffffffffffffffffffffffff168273ffffffffffffffffffffffffffffffffffffffff161415610833576040517f08c379a000000000000000000000000000000000000000000000000000000000815260040161082a906120ca565b60405180910390fd5b600360008373ffffffffffffffffffffffffffffffffffffffff1673ffffffffffffffffffffffffffffffffffffffff168152602001908152602001600020549050919050565b610882610cf4565b73ffffffffffffffffffffffffffffffffffffffff166108a0610902565b73ffffffffffffffffffffffffffffffffffffffff16146108f6576040517f08c379a00000000000000000000000000000000000000000000000000000000081526004016108ed906121aa565b60405180910390fd5b6109006000610db5565b565b6000600760009054906101000a900473ffffffffffffffffffffffffffffffffffffffff16905090565b60606001805461093b90612460565b80601f016020809104026020016040519081016040528092919081815260200182805461096790612460565b80156109b45780601f10610989576101008083540402835291602001916109b4565b820191906000526020600020905b81548152906001019060200180831161099757829003601f168201915b5050505050905090565b6109d06109c9610cf4565b8383610e7b565b5050565b8373ffffffffffffffffffffffffffffffffffffffff168373ffffffffffffffffffffffffffffffffffffffff1614610a42576040517f08c379a0000000000000000000000000000000000000000000000000000000008152600401610a399061212a565b60405180910390fd5b50505050565b6060610a5382610fe8565b9050919050565b6000610a66600861113a565b6000610a726008611150565b9050610a7e848261115e565b610a88818461117c565b8091505092915050565b6000600560008473ffffffffffffffffffffffffffffffffffffffff1673ffffffffffffffffffffffffffffffffffffffff16815260200190815260200160002060008373ffffffffffffffffffffffffffffffffffffffff1673ffffffffffffffffffffffffffffffffffffffff16815260200190815260200160002060009054906101000a900460ff16905092915050565b610b2e610cf4565b73ffffffffffffffffffffffffffffffffffffffff16610b4c610902565b73ffffffffffffffffffffffffffffffffffffffff1614610ba2576040517f08c379a0000000000000000000000000000000000000000000000000000000008152600401610b99906121aa565b60405180910390fd5b600073ffffffffffffffffffffffffffffffffffffffff168173ffffffffffffffffffffffffffffffffffffffff161415610c12576040517f08c379a0000000000000000000000000000000000000000000000000000000008152600401610c099061204a565b60405180910390fd5b610c1b81610db5565b50565b60007f01ffc9a7000000000000000000000000000000000000000000000000000000007bffffffffffffffffffffffffffffffffffffffffffffffffffffffff1916827bffffffffffffffffffffffffffffffffffffffffffffffffffffffff1916149050919050565b60008073ffffffffffffffffffffffffffffffffffffffff166002600084815260200190815260200160002060009054906101000a900473ffffffffffffffffffffffffffffffffffffffff1673ffffffffffffffffffffffffffffffffffffffff1614159050919050565b600033905090565b816004600083815260200190815260200160002060006101000a81548173ffffffffffffffffffffffffffffffffffffffff021916908373ffffffffffffffffffffffffffffffffffffffff160217905550808273ffffffffffffffffffffffffffffffffffffffff16610d6f83610710565b73ffffffffffffffffffffffffffffffffffffffff167f8c5be1e5ebec7d5bd14f71427d1e84f3dd0314c0f7b2291e5b200ac8c7c3b92560405160405180910390a45050565b6000600760009054906101000a900473ffffffffffffffffffffffffffffffffffffffff16905081600760006101000a81548173ffffffffffffffffffffffffffffffffffffffff021916908373ffffffffffffffffffffffffffffffffffffffff1602179055508173ffffffffffffffffffffffffffffffffffffffff168173ffffffffffffffffffffffffffffffffffffffff167f8be0079c531659141344cd1fd0a4f28419497f9722a3daafe3b4186f6b6457e060405160405180910390a35050565b8173ffffffffffffffffffffffffffffffffffffffff168373ffffffffffffffffffffffffffffffffffffffff161415610eea576040517f08c379a0000000000000000000000000000000000000000000000000000000008152600401610ee19061208a565b60405180910390fd5b80600560008573ffffffffffffffffffffffffffffffffffffffff1673ffffffffffffffffffffffffffffffffffffffff16815260200190815260200160002060008473ffffffffffffffffffffffffffffffffffffffff1673ffffffffffffffffffffffffffffffffffffffff16815260200190815260200160002060006101000a81548160ff0219169083151502179055508173ffffffffffffffffffffffffffffffffffffffff168373ffffffffffffffffffffffffffffffffffffffff167f17307eab39ab6107e8899845ad3d59bd9653f200f220920489ca2b5937696c3183604051610fdb9190611fed565b60405180910390a3505050565b6060610ff382610c88565b611032576040517f08c379a00000000000000000000000000000000000000000000000000000000081526004016110299061216a565b60405180910390fd5b600060066000848152602001908152602001600020805461105290612460565b80601f016020809104026020016040519081016040528092919081815260200182805461107e90612460565b80156110cb5780601f106110a0576101008083540402835291602001916110cb565b820191906000526020600020905b8154815290600101906020018083116110ae57829003601f168201915b5050505050905060006110dc6111f0565b90506000815114156110f2578192505050611135565b60008251111561112757808260405160200161110f929190611f62565b60405160208183030381529060405292505050611135565b61113084611207565b925050505b919050565b6001816000016000828254019250508190555050565b600081600001549050919050565b6111788282604051806020016040528060008152506112ae565b5050565b61118582610c88565b6111c4576040517f08c379a00000000000000000000000000000000000000000000000000000000081526004016111bb9061210a565b60405180910390fd5b806006600084815260200190815260200160002090805190602001906111eb929190611833565b505050565b606060405180602001604052806000815250905090565b606061121282610c88565b611251576040517f08c379a0000000000000000000000000000000000000000000000000000000008152600401611248906121ca565b60405180910390fd5b600061125b6111f0565b9050600081511161127b57604051806020016040528060008152506112a6565b8061128584611309565b604051602001611296929190611f62565b6040516020818303038152906040525b915050919050565b6112b883836114b6565b6112c56000848484611684565b611304576040517f08c379a00000000000000000000000000000000000000000000000000000000081526004016112fb9061202a565b60405180910390fd5b505050565b60606000821415611351576040518060400160405280600181526020017f300000000000000000000000000000000000000000000000000000000000000081525090506114b1565b600082905060005b6000821461138357808061136c906124c3565b915050600a8261137c9190612345565b9150611359565b60008167ffffffffffffffff8111156113c5577f4e487b7100000000000000000000000000000000000000000000000000000000600052604160045260246000fd5b6040519080825280601f01601f1916602001820160405280156113f75781602001600182028036833780820191505090505b5090505b600085146114aa576001826114109190612376565b9150600a8561141f919061250c565b603061142b91906122ef565b60f81b818381518110611467577f4e487b7100000000000000000000000000000000000000000000000000000000600052603260045260246000fd5b60200101907effffffffffffffffffffffffffffffffffffffffffffffffffffffffffffff1916908160001a905350600a856114a39190612345565b94506113fb565b8093505050505b919050565b600073ffffffffffffffffffffffffffffffffffffffff168273ffffffffffffffffffffffffffffffffffffffff161415611526576040517f08c379a000000000000000000000000000000000000000000000000000000000815260040161151d9061214a565b60405180910390fd5b61152f81610c88565b1561156f576040517f08c379a00000000000000000000000000000000000000000000000000000000081526004016115669061206a565b60405180910390fd5b61157b6000838361181b565b6001600360008473ffffffffffffffffffffffffffffffffffffffff1673ffffffffffffffffffffffffffffffffffffffff16815260200190815260200160002060008282546115cb91906122ef565b92505081905550816002600083815260200190815260200160002060006101000a81548173ffffffffffffffffffffffffffffffffffffffff021916908373ffffffffffffffffffffffffffffffffffffffff160217905550808273ffffffffffffffffffffffffffffffffffffffff16600073ffffffffffffffffffffffffffffffffffffffff167fddf252ad1be2c89b69c2b068fc378daa952ba7f163c4a11628f55a4df523b3ef60405160405180910390a45050565b60006116a58473ffffffffffffffffffffffffffffffffffffffff16611820565b1561180e578373ffffffffffffffffffffffffffffffffffffffff1663150b7a026116ce610cf4565b8786866040518563ffffffff1660e01b81526004016116f09493929190611fa1565b602060405180830381600087803b15801561170a57600080fd5b505af192505050801561173b57506040513d601f19601f820116820180604052508101906117389190611c33565b60015b6117be573d806000811461176b576040519150601f19603f3d011682016040523d82523d6000602084013e611770565b606091505b506000815114156117b6576040517f08c379a00000000000000000000000000000000000000000000000000000000081526004016117ad9061202a565b60405180910390fd5b805181602001fd5b63150b7a0260e01b7bffffffffffffffffffffffffffffffffffffffffffffffffffffffff1916817bffffffffffffffffffffffffffffffffffffffffffffffffffffffff191614915050611813565b600190505b949350505050565b505050565b600080823b905060008111915050919050565b82805461183f90612460565b90600052602060002090601f01602090048101928261186157600085556118a8565b82601f1061187a57805160ff19168380011785556118a8565b828001600101855582156118a8579182015b828111156118a757825182559160200191906001019061188c565b5b5090506118b591906118b9565b5090565b5b808211156118d25760008160009055506001016118ba565b5090565b60006118e96118e48461224a565b612225565b90508281526020810184848401111561190157600080fd5b61190c84828561241e565b509392505050565b60006119276119228461227b565b612225565b90508281526020810184848401111561193f57600080fd5b61194a84828561241e565b509392505050565b600081359050611961816129ed565b92915050565b60008135905061197681612a04565b92915050565b60008135905061198b81612a1b565b92915050565b6000815190506119a081612a1b565b92915050565b600082601f8301126119b757600080fd5b81356119c78482602086016118d6565b91505092915050565b600082601f8301126119e157600080fd5b81356119f1848260208601611914565b91505092915050565b600081359050611a0981612a32565b92915050565b600060208284031215611a2157600080fd5b6000611a2f84828501611952565b91505092915050565b60008060408385031215611a4b57600080fd5b6000611a5985828601611952565b9250506020611a6a85828601611952565b9150509250929050565b600080600060608486031215611a8957600080fd5b6000611a9786828701611952565b9350506020611aa886828701611952565b9250506040611ab9868287016119fa565b9150509250925092565b60008060008060808587031215611ad957600080fd5b6000611ae787828801611952565b9450506020611af887828801611952565b9350506040611b09878288016119fa565b925050606085013567ffffffffffffffff811115611b2657600080fd5b611b32878288016119a6565b91505092959194509250565b60008060408385031215611b5157600080fd5b6000611b5f85828601611952565b9250506020611b7085828601611967565b9150509250929050565b60008060408385031215611b8d57600080fd5b6000611b9b85828601611952565b925050602083013567ffffffffffffffff811115611bb857600080fd5b611bc4858286016119d0565b9150509250929050565b60008060408385031215611be157600080fd5b6000611bef85828601611952565b9250506020611c00858286016119fa565b9150509250929050565b600060208284031215611c1c57600080fd5b6000611c2a8482850161197c565b91505092915050565b600060208284031215611c4557600080fd5b6000611c5384828501611991565b91505092915050565b600060208284031215611c6e57600080fd5b6000611c7c848285016119fa565b91505092915050565b611c8e816123aa565b82525050565b611c9d816123bc565b82525050565b6000611cae826122ac565b611cb881856122c2565b9350611cc881856020860161242d565b611cd1816125f9565b840191505092915050565b6000611ce7826122b7565b611cf181856122d3565b9350611d0181856020860161242d565b611d0a816125f9565b840191505092915050565b6000611d20826122b7565b611d2a81856122e4565b9350611d3a81856020860161242d565b80840191505092915050565b6000611d536032836122d3565b9150611d5e8261260a565b604082019050919050565b6000611d766026836122d3565b9150611d8182612659565b604082019050919050565b6000611d99601c836122d3565b9150611da4826126a8565b602082019050919050565b6000611dbc6019836122d3565b9150611dc7826126d1565b602082019050919050565b6000611ddf6038836122d3565b9150611dea826126fa565b604082019050919050565b6000611e02602a836122d3565b9150611e0d82612749565b604082019050919050565b6000611e256029836122d3565b9150611e3082612798565b604082019050919050565b6000611e48602e836122d3565b9150611e53826127e7565b604082019050919050565b6000611e6b601e836122d3565b9150611e7682612836565b602082019050919050565b6000611e8e6020836122d3565b9150611e998261285f565b602082019050919050565b6000611eb16031836122d3565b9150611ebc82612888565b604082019050919050565b6000611ed4602c836122d3565b9150611edf826128d7565b604082019050919050565b6000611ef76020836122d3565b9150611f0282612926565b602082019050919050565b6000611f1a602f836122d3565b9150611f258261294f565b604082019050919050565b6000611f3d6021836122d3565b9150611f488261299e565b604082019050919050565b611f5c81612414565b82525050565b6000611f6e8285611d15565b9150611f7a8284611d15565b91508190509392505050565b6000602082019050611f9b6000830184611c85565b92915050565b6000608082019050611fb66000830187611c85565b611fc36020830186611c85565b611fd06040830185611f53565b8181036060830152611fe28184611ca3565b905095945050505050565b60006020820190506120026000830184611c94565b92915050565b600060208201905081810360008301526120228184611cdc565b905092915050565b6000602082019050818103600083015261204381611d46565b9050919050565b6000602082019050818103600083015261206381611d69565b9050919050565b6000602082019050818103600083015261208381611d8c565b9050919050565b600060208201905081810360008301526120a381611daf565b9050919050565b600060208201905081810360008301526120c381611dd2565b9050919050565b600060208201905081810360008301526120e381611df5565b9050919050565b6000602082019050818103600083015261210381611e18565b9050919050565b6000602082019050818103600083015261212381611e3b565b9050919050565b6000602082019050818103600083015261214381611e5e565b9050919050565b6000602082019050818103600083015261216381611e81565b9050919050565b6000602082019050818103600083015261218381611ea4565b9050919050565b600060208201905081810360008301526121a381611ec7565b9050919050565b600060208201905081810360008301526121c381611eea565b9050919050565b600060208201905081810360008301526121e381611f0d565b9050919050565b6000602082019050818103600083015261220381611f30565b9050919050565b600060208201905061221f6000830184611f53565b92915050565b600061222f612240565b905061223b8282612492565b919050565b6000604051905090565b600067ffffffffffffffff821115612265576122646125ca565b5b61226e826125f9565b9050602081019050919050565b600067ffffffffffffffff821115612296576122956125ca565b5b61229f826125f9565b9050602081019050919050565b600081519050919050565b600081519050919050565b600082825260208201905092915050565b600082825260208201905092915050565b600081905092915050565b60006122fa82612414565b915061230583612414565b9250827fffffffffffffffffffffffffffffffffffffffffffffffffffffffffffffffff0382111561233a5761233961253d565b5b828201905092915050565b600061235082612414565b915061235b83612414565b92508261236b5761236a61256c565b5b828204905092915050565b600061238182612414565b915061238c83612414565b92508282101561239f5761239e61253d565b5b828203905092915050565b60006123b5826123f4565b9050919050565b60008115159050919050565b60007fffffffff0000000000000000000000000000000000000000000000000000000082169050919050565b600073ffffffffffffffffffffffffffffffffffffffff82169050919050565b6000819050919050565b82818337600083830152505050565b60005b8381101561244b578082015181840152602081019050612430565b8381111561245a576000848401525b50505050565b6000600282049050600182168061247857607f821691505b6020821081141561248c5761248b61259b565b5b50919050565b61249b826125f9565b810181811067ffffffffffffffff821117156124ba576124b96125ca565b5b80604052505050565b60006124ce82612414565b91507fffffffffffffffffffffffffffffffffffffffffffffffffffffffffffffffff8214156125015761250061253d565b5b600182019050919050565b600061251782612414565b915061252283612414565b9250826125325761253161256c565b5b828206905092915050565b7f4e487b7100000000000000000000000000000000000000000000000000000000600052601160045260246000fd5b7f4e487b7100000000000000000000000000000000000000000000000000000000600052601260045260246000fd5b7f4e487b7100000000000000000000000000000000000000000000000000000000600052602260045260246000fd5b7f4e487b7100000000000000000000000000000000000000000000000000000000600052604160045260246000fd5b6000601f19601f8301169050919050565b7f4552433732313a207472616e7366657220746f206e6f6e20455243373231526560008201527f63656976657220696d706c656d656e7465720000000000000000000000000000602082015250565b7f4f776e61626c653a206e6577206f776e657220697320746865207a65726f206160008201527f6464726573730000000000000000000000000000000000000000000000000000602082015250565b7f4552433732313a20746f6b656e20616c7265616479206d696e74656400000000600082015250565b7f4552433732313a20617070726f766520746f2063616c6c657200000000000000600082015250565b7f4552433732313a20617070726f76652063616c6c6572206973206e6f74206f7760008201527f6e6572206e6f7220617070726f76656420666f7220616c6c0000000000000000602082015250565b7f4552433732313a2062616c616e636520717565727920666f7220746865207a6560008201527f726f206164647265737300000000000000000000000000000000000000000000602082015250565b7f4552433732313a206f776e657220717565727920666f72206e6f6e657869737460008201527f656e7420746f6b656e0000000000000000000000000000000000000000000000602082015250565b7f45524337323155524953746f726167653a2055524920736574206f66206e6f6e60008201527f6578697374656e7420746f6b656e000000000000000000000000000000000000602082015250565b7f596f752063616e206e6f74207472616e736665722074686973204e46542e0000600082015250565b7f4552433732313a206d696e7420746f20746865207a65726f2061646472657373600082015250565b7f45524337323155524953746f726167653a2055524920717565727920666f722060008201527f6e6f6e6578697374656e7420746f6b656e000000000000000000000000000000602082015250565b7f4552433732313a20617070726f76656420717565727920666f72206e6f6e657860008201527f697374656e7420746f6b656e0000000000000000000000000000000000000000602082015250565b7f4f776e61626c653a2063616c6c6572206973206e6f7420746865206f776e6572600082015250565b7f4552433732314d657461646174613a2055524920717565727920666f72206e6f60008201527f6e6578697374656e7420746f6b656e0000000000000000000000000000000000602082015250565b7f4552433732313a20617070726f76616c20746f2063757272656e74206f776e6560008201527f7200000000000000000000000000000000000000000000000000000000000000602082015250565b6129f6816123aa565b8114612a0157600080fd5b50565b612a0d816123bc565b8114612a1857600080fd5b50565b612a24816123c8565b8114612a2f57600080fd5b50565b612a3b81612414565b8114612a4657600080fd5b5056fea2646970667358221220ff27a27b7095f5e46a9fb02eac058d1c854c8fb569d01ccdb3afd747a0caeaa664736f6c63430008040033",
  "linkReferences": {},
  "deployedLinkReferences": {}
}